{
  "_format": "hh-sol-artifact-1",
  "contractName": "ChessWager",
  "sourceName": "contracts/ChessWager.sol",
  "abi": [
    {
      "inputs": [],
      "name": "ECDSAInvalidSignature",
      "type": "error"
    },
    {
      "inputs": [
        {
          "internalType": "uint256",
          "name": "length",
          "type": "uint256"
        }
      ],
      "name": "ECDSAInvalidSignatureLength",
      "type": "error"
    },
    {
      "inputs": [
        {
          "internalType": "bytes32",
          "name": "s",
          "type": "bytes32"
        }
      ],
      "name": "ECDSAInvalidSignatureS",
      "type": "error"
    },
    {
      "inputs": [],
      "name": "ReentrancyGuardReentrantCall",
      "type": "error"
    },
    {
      "anonymous": false,
      "inputs": [
        {
          "indexed": true,
          "internalType": "uint256",
          "name": "gameId",
          "type": "uint256"
        },
        {
          "indexed": true,
          "internalType": "address",
          "name": "creator",
          "type": "address"
        },
        {
          "indexed": false,
          "internalType": "uint256",
          "name": "wager",
          "type": "uint256"
        }
      ],
      "name": "GameCreated",
      "type": "event"
    },
    {
      "anonymous": false,
      "inputs": [
        {
          "indexed": true,
          "internalType": "uint256",
          "name": "gameId",
          "type": "uint256"
        },
        {
          "indexed": true,
          "internalType": "address",
          "name": "winner",
          "type": "address"
        },
        {
          "indexed": false,
          "internalType": "uint256",
          "name": "payout",
          "type": "uint256"
        }
      ],
      "name": "GameEnded",
      "type": "event"
    },
    {
      "anonymous": false,
      "inputs": [
        {
          "indexed": true,
          "internalType": "uint256",
          "name": "gameId",
          "type": "uint256"
        },
        {
          "indexed": false,
          "internalType": "string",
          "name": "reason",
          "type": "string"
        }
      ],
      "name": "GameRefunded",
      "type": "event"
    },
    {
      "anonymous": false,
      "inputs": [
        {
          "indexed": true,
          "internalType": "uint256",
          "name": "gameId",
          "type": "uint256"
        },
        {
          "indexed": true,
          "internalType": "address",
          "name": "opponent",
          "type": "address"
        }
      ],
      "name": "PlayerJoined",
      "type": "event"
    },
    {
      "inputs": [],
      "name": "GAME_TIMEOUT",
      "outputs": [
        {
          "internalType": "uint256",
          "name": "",
          "type": "uint256"
        }
      ],
      "stateMutability": "view",
      "type": "function"
    },
    {
      "inputs": [
        {
          "internalType": "uint256",
          "name": "_gameId",
          "type": "uint256"
        }
      ],
      "name": "claimTimeout",
      "outputs": [],
      "stateMutability": "nonpayable",
      "type": "function"
    },
    {
      "inputs": [],
      "name": "createGame",
      "outputs": [
        {
          "internalType": "uint256",
          "name": "",
          "type": "uint256"
        }
      ],
      "stateMutability": "payable",
      "type": "function"
    },
    {
      "inputs": [],
      "name": "gameIdCounter",
      "outputs": [
        {
          "internalType": "uint256",
          "name": "",
          "type": "uint256"
        }
      ],
      "stateMutability": "view",
      "type": "function"
    },
    {
      "inputs": [
        {
          "internalType": "uint256",
          "name": "",
          "type": "uint256"
        }
      ],
      "name": "games",
      "outputs": [
        {
          "internalType": "address payable",
          "name": "player1",
          "type": "address"
        },
        {
          "internalType": "address payable",
          "name": "player2",
          "type": "address"
        },
        {
          "internalType": "uint64",
          "name": "creationTime",
          "type": "uint64"
        },
        {
          "internalType": "uint96",
          "name": "wagerAmount",
          "type": "uint96"
        },
        {
          "internalType": "bool",
          "name": "isActive",
          "type": "bool"
        },
        {
          "internalType": "bool",
          "name": "isDraw",
          "type": "bool"
        },
        {
          "internalType": "address",
          "name": "winner",
          "type": "address"
        }
      ],
      "stateMutability": "view",
      "type": "function"
    },
    {
      "inputs": [
        {
          "internalType": "uint256",
          "name": "_gameId",
          "type": "uint256"
        }
      ],
      "name": "getGameInfo",
      "outputs": [
        {
          "internalType": "address",
          "name": "p1",
          "type": "address"
        },
        {
          "internalType": "address",
          "name": "p2",
          "type": "address"
        },
        {
          "internalType": "uint256",
          "name": "wager",
          "type": "uint256"
        },
        {
          "internalType": "bool",
          "name": "active",
          "type": "bool"
        },
        {
          "internalType": "address",
          "name": "winnerAddress",
          "type": "address"
        }
      ],
      "stateMutability": "view",
      "type": "function"
    },
    {
      "inputs": [
        {
          "internalType": "uint256",
          "name": "_gameId",
          "type": "uint256"
        }
      ],
      "name": "joinGame",
      "outputs": [],
      "stateMutability": "payable",
      "type": "function"
    },
    {
      "inputs": [
        {
          "internalType": "uint256",
          "name": "_gameId",
          "type": "uint256"
        },
        {
          "internalType": "bytes",
          "name": "_signature",
          "type": "bytes"
        }
      ],
      "name": "reportWin",
      "outputs": [],
      "stateMutability": "nonpayable",
      "type": "function"
    }
  ],
  "bytecode": "0x6080604052348015600f57600080fd5b50600160008190555061247a806100276000396000f3fe60806040526004361061007b5760003560e01c80637255d7291161004e5780637255d7291461015a57806386e773f114610178578063c7551246146101a1578063efaa55a0146101ca5761007b565b8063099420b614610080578063117a5b90146100ab5780631bb412d6146100ee57806347e1d55014610119575b600080fd5b34801561008c57600080fd5b506100956101e6565b6040516100a29190611771565b60405180910390f35b3480156100b757600080fd5b506100d260048036038101906100cd91906117cc565b6101ed565b6040516100e597969594939291906118c0565b60405180910390f35b3480156100fa57600080fd5b506101036102d5565b6040516101109190611771565b60405180910390f35b34801561012557600080fd5b50610140600480360381019061013b91906117cc565b6102db565b60405161015195949392919061192f565b60405180910390f35b6101626104ea565b60405161016f9190611771565b60405180910390f35b34801561018457600080fd5b5061019f600480360381019061019a91906117cc565b6107d8565b005b3480156101ad57600080fd5b506101c860048036038101906101c39190611ac8565b610c67565b005b6101e460048036038101906101df91906117cc565b61115e565b005b6201518081565b60016020528060005260406000206000915090508060000160009054906101000a900473ffffffffffffffffffffffffffffffffffffffff16908060010160009054906101000a900473ffffffffffffffffffffffffffffffffffffffff16908060010160149054906101000a900467ffffffffffffffff16908060020160009054906101000a90046bffffffffffffffffffffffff169080600201600c9054906101000a900460ff169080600201600d9054906101000a900460ff16908060030160009054906101000a900473ffffffffffffffffffffffffffffffffffffffff16905087565b60025481565b600080600080600080600160008881526020019081526020016000206040518060e00160405290816000820160009054906101000a900473ffffffffffffffffffffffffffffffffffffffff1673ffffffffffffffffffffffffffffffffffffffff1673ffffffffffffffffffffffffffffffffffffffff1681526020016001820160009054906101000a900473ffffffffffffffffffffffffffffffffffffffff1673ffffffffffffffffffffffffffffffffffffffff1673ffffffffffffffffffffffffffffffffffffffff1681526020016001820160149054906101000a900467ffffffffffffffff1667ffffffffffffffff1667ffffffffffffffff1681526020016002820160009054906101000a90046bffffffffffffffffffffffff166bffffffffffffffffffffffff166bffffffffffffffffffffffff16815260200160028201600c9054906101000a900460ff1615151515815260200160028201600d9054906101000a900460ff161515151581526020016003820160009054906101000a900473ffffffffffffffffffffffffffffffffffffffff1673ffffffffffffffffffffffffffffffffffffffff1673ffffffffffffffffffffffffffffffffffffffff1681525050905080600001518160200151826060015183608001518460c00151826bffffffffffffffffffffffff169250955095509550955095505091939590929450565b60006104f46113f2565b60003411610537576040517f08c379a000000000000000000000000000000000000000000000000000000000815260040161052e90611b81565b60405180910390fd5b6002600081548092919061054a90611bd0565b91905055506040518060e001604052803373ffffffffffffffffffffffffffffffffffffffff168152602001600073ffffffffffffffffffffffffffffffffffffffff1681526020014267ffffffffffffffff168152602001346bffffffffffffffffffffffff168152602001600115158152602001600015158152602001600073ffffffffffffffffffffffffffffffffffffffff1681525060016000600254815260200190815260200160002060008201518160000160006101000a81548173ffffffffffffffffffffffffffffffffffffffff021916908373ffffffffffffffffffffffffffffffffffffffff16021790555060208201518160010160006101000a81548173ffffffffffffffffffffffffffffffffffffffff021916908373ffffffffffffffffffffffffffffffffffffffff16021790555060408201518160010160146101000a81548167ffffffffffffffff021916908367ffffffffffffffff16021790555060608201518160020160006101000a8154816bffffffffffffffffffffffff02191690836bffffffffffffffffffffffff160217905550608082015181600201600c6101000a81548160ff02191690831515021790555060a082015181600201600d6101000a81548160ff02191690831515021790555060c08201518160030160006101000a81548173ffffffffffffffffffffffffffffffffffffffff021916908373ffffffffffffffffffffffffffffffffffffffff1602179055509050503373ffffffffffffffffffffffffffffffffffffffff166002547f7dfb67e9ff596fca4da65c7eedb128cd1aac553af54b3c0cb733625a2480d8bd346040516107c09190611771565b60405180910390a360025490506107d5611438565b90565b6107e06113f2565b600060016000838152602001908152602001600020905080600201600c9054906101000a900460ff16610848576040517f08c379a000000000000000000000000000000000000000000000000000000000815260040161083f90611c64565b60405180910390fd5b620151808160010160149054906101000a900467ffffffffffffffff1667ffffffffffffffff166108799190611c84565b42116108ba576040517f08c379a00000000000000000000000000000000000000000000000000000000081526004016108b190611d04565b60405180910390fd5b600081600201600c6101000a81548160ff021916908315150217905550600073ffffffffffffffffffffffffffffffffffffffff168160010160009054906101000a900473ffffffffffffffffffffffffffffffffffffffff1673ffffffffffffffffffffffffffffffffffffffff1603610a655760008160000160009054906101000a900473ffffffffffffffffffffffffffffffffffffffff1673ffffffffffffffffffffffffffffffffffffffff168260020160009054906101000a90046bffffffffffffffffffffffff166bffffffffffffffffffffffff166040516109a390611d55565b60006040518083038185875af1925050503d80600081146109e0576040519150601f19603f3d011682016040523d82523d6000602084013e6109e5565b606091505b5050905080610a29576040517f08c379a0000000000000000000000000000000000000000000000000000000008152600401610a2090611db6565b60405180910390fd5b827fd4dee1ad9aaf5e16668c28363994a5e60dba69b179e82bb7b9a8a4af8171b642604051610a5790611e22565b60405180910390a250610c5b565b60008160000160009054906101000a900473ffffffffffffffffffffffffffffffffffffffff1673ffffffffffffffffffffffffffffffffffffffff168260020160009054906101000a90046bffffffffffffffffffffffff166bffffffffffffffffffffffff16604051610ad990611d55565b60006040518083038185875af1925050503d8060008114610b16576040519150601f19603f3d011682016040523d82523d6000602084013e610b1b565b606091505b5050905060008260010160009054906101000a900473ffffffffffffffffffffffffffffffffffffffff1673ffffffffffffffffffffffffffffffffffffffff168360020160009054906101000a90046bffffffffffffffffffffffff166bffffffffffffffffffffffff16604051610b9390611d55565b60006040518083038185875af1925050503d8060008114610bd0576040519150601f19603f3d011682016040523d82523d6000602084013e610bd5565b606091505b50509050818015610be35750805b610c22576040517f08c379a0000000000000000000000000000000000000000000000000000000008152600401610c1990611db6565b60405180910390fd5b837fd4dee1ad9aaf5e16668c28363994a5e60dba69b179e82bb7b9a8a4af8171b642604051610c5090611e8e565b60405180910390a250505b50610c64611438565b50565b610c6f6113f2565b600060016000848152602001908152602001600020905080600201600c9054906101000a900460ff16610cd7576040517f08c379a0000000000000000000000000000000000000000000000000000000008152600401610cce90611efa565b60405180910390fd5b600073ffffffffffffffffffffffffffffffffffffffff168160010160009054906101000a900473ffffffffffffffffffffffffffffffffffffffff1673ffffffffffffffffffffffffffffffffffffffff1603610d6a576040517f08c379a0000000000000000000000000000000000000000000000000000000008152600401610d6190611f66565b60405180910390fd5b8060000160009054906101000a900473ffffffffffffffffffffffffffffffffffffffff1673ffffffffffffffffffffffffffffffffffffffff163373ffffffffffffffffffffffffffffffffffffffff161480610e1757508060010160009054906101000a900473ffffffffffffffffffffffffffffffffffffffff1673ffffffffffffffffffffffffffffffffffffffff163373ffffffffffffffffffffffffffffffffffffffff16145b610e56576040517f08c379a0000000000000000000000000000000000000000000000000000000008152600401610e4d90611fd2565b60405180910390fd5b60008160000160009054906101000a900473ffffffffffffffffffffffffffffffffffffffff1673ffffffffffffffffffffffffffffffffffffffff163373ffffffffffffffffffffffffffffffffffffffff1614610ed9578160000160009054906101000a900473ffffffffffffffffffffffffffffffffffffffff16610eff565b8160010160009054906101000a900473ffffffffffffffffffffffffffffffffffffffff165b9050600084604051602001610f14919061206a565b6040516020818303038152906040528051906020012090506000610f3782611442565b90506000610f458287611478565b90508373ffffffffffffffffffffffffffffffffffffffff168173ffffffffffffffffffffffffffffffffffffffff1614610fb5576040517f08c379a0000000000000000000000000000000000000000000000000000000008152600401610fac90612102565b60405180910390fd5b600085600201600c6101000a81548160ff021916908315150217905550338560030160006101000a81548173ffffffffffffffffffffffffffffffffffffffff021916908373ffffffffffffffffffffffffffffffffffffffff160217905550600060028660020160009054906101000a90046bffffffffffffffffffffffff166bffffffffffffffffffffffff1661104e9190612122565b905060003373ffffffffffffffffffffffffffffffffffffffff168260405161107690611d55565b60006040518083038185875af1925050503d80600081146110b3576040519150601f19603f3d011682016040523d82523d6000602084013e6110b8565b606091505b50509050806110fc576040517f08c379a00000000000000000000000000000000000000000000000000000000081526004016110f3906121b0565b60405180910390fd5b3373ffffffffffffffffffffffffffffffffffffffff16897ff1898de79c348962fab7695532341027e5bceb0ea2a8785790fa7d7efeeee129846040516111439190611771565b60405180910390a35050505050505061115a611438565b5050565b6111666113f2565b600060016000838152602001908152602001600020905080600201600c9054906101000a900460ff166111ce576040517f08c379a00000000000000000000000000000000000000000000000000000000081526004016111c59061221c565b60405180910390fd5b600073ffffffffffffffffffffffffffffffffffffffff168160010160009054906101000a900473ffffffffffffffffffffffffffffffffffffffff1673ffffffffffffffffffffffffffffffffffffffff1614611261576040517f08c379a000000000000000000000000000000000000000000000000000000000815260040161125890612288565b60405180910390fd5b8060000160009054906101000a900473ffffffffffffffffffffffffffffffffffffffff1673ffffffffffffffffffffffffffffffffffffffff163373ffffffffffffffffffffffffffffffffffffffff16036112f3576040517f08c379a00000000000000000000000000000000000000000000000000000000081526004016112ea906122f4565b60405180910390fd5b8060020160009054906101000a90046bffffffffffffffffffffffff166bffffffffffffffffffffffff16341461135f576040517f08c379a000000000000000000000000000000000000000000000000000000000815260040161135690612360565b60405180910390fd5b338160010160006101000a81548173ffffffffffffffffffffffffffffffffffffffff021916908373ffffffffffffffffffffffffffffffffffffffff1602179055503373ffffffffffffffffffffffffffffffffffffffff16827f87969bc7faf902221a147b95ceba76e011c5efb0339a0a8ee7a2bb82d9cfbbd660405160405180910390a3506113ef611438565b50565b60026000540361142e576040517f3ee5aeb500000000000000000000000000000000000000000000000000000000815260040160405180910390fd5b6002600081905550565b6001600081905550565b60007f19457468657265756d205369676e6564204d6573736167653a0a33320000000060005281601c52603c6000209050919050565b60008060008061148886866114a4565b9250925092506114988282611500565b82935050505092915050565b600080600060418451036114e95760008060006020870151925060408701519150606087015160001a90506114db88828585611664565b9550955095505050506114f9565b60006002855160001b9250925092505b9250925092565b6000600381111561151457611513612380565b5b82600381111561152757611526612380565b5b0315611660576001600381111561154157611540612380565b5b82600381111561155457611553612380565b5b0361158b576040517ff645eedf00000000000000000000000000000000000000000000000000000000815260040160405180910390fd5b6002600381111561159f5761159e612380565b5b8260038111156115b2576115b1612380565b5b036115f7578060001c6040517ffce698f70000000000000000000000000000000000000000000000000000000081526004016115ee9190611771565b60405180910390fd5b60038081111561160a57611609612380565b5b82600381111561161d5761161c612380565b5b0361165f57806040517fd78bce0c00000000000000000000000000000000000000000000000000000000815260040161165691906123c8565b60405180910390fd5b5b5050565b60008060007f7fffffffffffffffffffffffffffffff5d576e7357a4501ddfe92f46681b20a08460001c11156116a457600060038592509250925061174e565b6000600188888888604051600081526020016040526040516116c994939291906123ff565b6020604051602081039080840390855afa1580156116eb573d6000803e3d6000fd5b505050602060405103519050600073ffffffffffffffffffffffffffffffffffffffff168173ffffffffffffffffffffffffffffffffffffffff160361173f57600060016000801b9350935093505061174e565b8060008060001b935093509350505b9450945094915050565b6000819050919050565b61176b81611758565b82525050565b60006020820190506117866000830184611762565b92915050565b6000604051905090565b600080fd5b600080fd5b6117a981611758565b81146117b457600080fd5b50565b6000813590506117c6816117a0565b92915050565b6000602082840312156117e2576117e1611796565b5b60006117f0848285016117b7565b91505092915050565b600073ffffffffffffffffffffffffffffffffffffffff82169050919050565b6000611824826117f9565b9050919050565b61183481611819565b82525050565b600067ffffffffffffffff82169050919050565b6118578161183a565b82525050565b60006bffffffffffffffffffffffff82169050919050565b61187e8161185d565b82525050565b60008115159050919050565b61189981611884565b82525050565b60006118aa826117f9565b9050919050565b6118ba8161189f565b82525050565b600060e0820190506118d5600083018a61182b565b6118e2602083018961182b565b6118ef604083018861184e565b6118fc6060830187611875565b6119096080830186611890565b61191660a0830185611890565b61192360c08301846118b1565b98975050505050505050565b600060a08201905061194460008301886118b1565b61195160208301876118b1565b61195e6040830186611762565b61196b6060830185611890565b61197860808301846118b1565b9695505050505050565b600080fd5b600080fd5b6000601f19601f8301169050919050565b7f4e487b7100000000000000000000000000000000000000000000000000000000600052604160045260246000fd5b6119d58261198c565b810181811067ffffffffffffffff821117156119f4576119f361199d565b5b80604052505050565b6000611a0761178c565b9050611a1382826119cc565b919050565b600067ffffffffffffffff821115611a3357611a3261199d565b5b611a3c8261198c565b9050602081019050919050565b82818337600083830152505050565b6000611a6b611a6684611a18565b6119fd565b905082815260208101848484011115611a8757611a86611987565b5b611a92848285611a49565b509392505050565b600082601f830112611aaf57611aae611982565b5b8135611abf848260208601611a58565b91505092915050565b60008060408385031215611adf57611ade611796565b5b6000611aed858286016117b7565b925050602083013567ffffffffffffffff811115611b0e57611b0d61179b565b5b611b1a85828601611a9a565b9150509250929050565b600082825260208201905092915050565b7f5761676572206d7573742062652067726561746572207468616e203000000000600082015250565b6000611b6b601c83611b24565b9150611b7682611b35565b602082019050919050565b60006020820190508181036000830152611b9a81611b5e565b9050919050565b7f4e487b7100000000000000000000000000000000000000000000000000000000600052601160045260246000fd5b6000611bdb82611758565b91507fffffffffffffffffffffffffffffffffffffffffffffffffffffffffffffffff8203611c0d57611c0c611ba1565b5b600182019050919050565b7f47616d6520616374697665206f7220616c726561647920656e64656400000000600082015250565b6000611c4e601c83611b24565b9150611c5982611c18565b602082019050919050565b60006020820190508181036000830152611c7d81611c41565b9050919050565b6000611c8f82611758565b9150611c9a83611758565b9250828201905080821115611cb257611cb1611ba1565b5b92915050565b7f54696d656f7574206e6f74207965742072656163686564000000000000000000600082015250565b6000611cee601783611b24565b9150611cf982611cb8565b602082019050919050565b60006020820190508181036000830152611d1d81611ce1565b9050919050565b600081905092915050565b50565b6000611d3f600083611d24565b9150611d4a82611d2f565b600082019050919050565b6000611d6082611d32565b9150819050919050565b7f526566756e64206661696c656400000000000000000000000000000000000000600082015250565b6000611da0600d83611b24565b9150611dab82611d6a565b602082019050919050565b60006020820190508181036000830152611dcf81611d93565b9050919050565b7f4e6f206f70706f6e656e74206a6f696e65640000000000000000000000000000600082015250565b6000611e0c601283611b24565b9150611e1782611dd6565b602082019050919050565b60006020820190508181036000830152611e3b81611dff565b9050919050565b7f47616d65206162616e646f6e6564202d20526566756e64656400000000000000600082015250565b6000611e78601983611b24565b9150611e8382611e42565b602082019050919050565b60006020820190508181036000830152611ea781611e6b565b9050919050565b7f47616d6520616c72656164792066696e69736865640000000000000000000000600082015250565b6000611ee4601583611b24565b9150611eef82611eae565b602082019050919050565b60006020820190508181036000830152611f1381611ed7565b9050919050565b7f47616d65206c61636b7320616e206f70706f6e656e7400000000000000000000600082015250565b6000611f50601683611b24565b9150611f5b82611f1a565b602082019050919050565b60006020820190508181036000830152611f7f81611f43565b9050919050565b7f556e617574686f72697a65642063616c6c657200000000000000000000000000600082015250565b6000611fbc601383611b24565b9150611fc782611f86565b602082019050919050565b60006020820190508181036000830152611feb81611faf565b9050919050565b6000819050919050565b61200d61200882611758565b611ff2565b82525050565b600081905092915050565b7f6c6f737300000000000000000000000000000000000000000000000000000000600082015250565b6000612054600483612013565b915061205f8261201e565b600482019050919050565b60006120768284611ffc565b60208201915061208582612047565b915081905092915050565b7f496e76616c6964207369676e61747572653a204f70706f6e656e74206469642060008201527f6e6f742061646d69742064656665617400000000000000000000000000000000602082015250565b60006120ec603083611b24565b91506120f782612090565b604082019050919050565b6000602082019050818103600083015261211b816120df565b9050919050565b600061212d82611758565b915061213883611758565b925082820261214681611758565b9150828204841483151761215d5761215c611ba1565b5b5092915050565b7f5472616e73666572206661696c65640000000000000000000000000000000000600082015250565b600061219a600f83611b24565b91506121a582612164565b602082019050919050565b600060208201905081810360008301526121c98161218d565b9050919050565b7f47616d65206973206e6f74206163746976650000000000000000000000000000600082015250565b6000612206601283611b24565b9150612211826121d0565b602082019050919050565b60006020820190508181036000830152612235816121f9565b9050919050565b7f47616d6520697320616c72656164792066756c6c000000000000000000000000600082015250565b6000612272601483611b24565b915061227d8261223c565b602082019050919050565b600060208201905081810360008301526122a181612265565b9050919050565b7f43616e6e6f7420706c617920616761696e737420796f757273656c6600000000600082015250565b60006122de601c83611b24565b91506122e9826122a8565b602082019050919050565b6000602082019050818103600083015261230d816122d1565b9050919050565b7f496e636f727265637420776167657220616d6f756e7400000000000000000000600082015250565b600061234a601683611b24565b915061235582612314565b602082019050919050565b600060208201905081810360008301526123798161233d565b9050919050565b7f4e487b7100000000000000000000000000000000000000000000000000000000600052602160045260246000fd5b6000819050919050565b6123c2816123af565b82525050565b60006020820190506123dd60008301846123b9565b92915050565b600060ff82169050919050565b6123f9816123e3565b82525050565b600060808201905061241460008301876123b9565b61242160208301866123f0565b61242e60408301856123b9565b61243b60608301846123b9565b9594505050505056fea2646970667358221220a7cfb0d49215e4d04723e77c1943f766685cac9d090fab47771a9ad1799605a364736f6c634300081c0033",
  "linkReferences": {},
  "deployedLinkReferences": {}
}