{
  "_format": "hh-sol-artifact-1",
  "contractName": "ChessWager",
  "sourceName": "contracts/ChessWager.sol",
  "abi": [
    {
      "inputs": [],
      "name": "ReentrancyGuardReentrantCall",
      "type": "error"
    },
    {
      "anonymous": false,
      "inputs": [
        {
          "indexed": true,
          "internalType": "uint256",
          "name": "gameId",
          "type": "uint256"
        },
        {
          "indexed": true,
          "internalType": "address",
          "name": "creator",
          "type": "address"
        },
        {
          "indexed": false,
          "internalType": "uint256",
          "name": "wager",
          "type": "uint256"
        }
      ],
      "name": "GameCreated",
      "type": "event"
    },
    {
      "anonymous": false,
      "inputs": [
        {
          "indexed": true,
          "internalType": "uint256",
          "name": "gameId",
          "type": "uint256"
        },
        {
          "indexed": true,
          "internalType": "address",
          "name": "winner",
          "type": "address"
        },
        {
          "indexed": false,
          "internalType": "uint256",
          "name": "payout",
          "type": "uint256"
        }
      ],
      "name": "GameEnded",
      "type": "event"
    },
    {
      "anonymous": false,
      "inputs": [
        {
          "indexed": true,
          "internalType": "uint256",
          "name": "gameId",
          "type": "uint256"
        },
        {
          "indexed": false,
          "internalType": "string",
          "name": "reason",
          "type": "string"
        }
      ],
      "name": "GameRefunded",
      "type": "event"
    },
    {
      "anonymous": false,
      "inputs": [
        {
          "indexed": true,
          "internalType": "uint256",
          "name": "gameId",
          "type": "uint256"
        },
        {
          "indexed": false,
          "internalType": "address",
          "name": "player",
          "type": "address"
        },
        {
          "indexed": false,
          "internalType": "string",
          "name": "moveSan",
          "type": "string"
        }
      ],
      "name": "MoveMade",
      "type": "event"
    },
    {
      "anonymous": false,
      "inputs": [
        {
          "indexed": true,
          "internalType": "uint256",
          "name": "gameId",
          "type": "uint256"
        },
        {
          "indexed": true,
          "internalType": "address",
          "name": "opponent",
          "type": "address"
        }
      ],
      "name": "PlayerJoined",
      "type": "event"
    },
    {
      "inputs": [],
      "name": "GAME_TIMEOUT",
      "outputs": [
        {
          "internalType": "uint256",
          "name": "",
          "type": "uint256"
        }
      ],
      "stateMutability": "view",
      "type": "function"
    },
    {
      "inputs": [
        {
          "internalType": "uint256",
          "name": "_gameId",
          "type": "uint256"
        }
      ],
      "name": "claimTimeout",
      "outputs": [],
      "stateMutability": "nonpayable",
      "type": "function"
    },
    {
      "inputs": [],
      "name": "createGame",
      "outputs": [
        {
          "internalType": "uint256",
          "name": "",
          "type": "uint256"
        }
      ],
      "stateMutability": "payable",
      "type": "function"
    },
    {
      "inputs": [],
      "name": "gameIdCounter",
      "outputs": [
        {
          "internalType": "uint256",
          "name": "",
          "type": "uint256"
        }
      ],
      "stateMutability": "view",
      "type": "function"
    },
    {
      "inputs": [
        {
          "internalType": "uint256",
          "name": "",
          "type": "uint256"
        }
      ],
      "name": "games",
      "outputs": [
        {
          "internalType": "address payable",
          "name": "player1",
          "type": "address"
        },
        {
          "internalType": "address payable",
          "name": "player2",
          "type": "address"
        },
        {
          "internalType": "uint64",
          "name": "creationTime",
          "type": "uint64"
        },
        {
          "internalType": "uint96",
          "name": "wagerAmount",
          "type": "uint96"
        },
        {
          "internalType": "bool",
          "name": "isActive",
          "type": "bool"
        },
        {
          "internalType": "address",
          "name": "winner",
          "type": "address"
        }
      ],
      "stateMutability": "view",
      "type": "function"
    },
    {
      "inputs": [
        {
          "internalType": "uint256",
          "name": "_gameId",
          "type": "uint256"
        }
      ],
      "name": "getGameInfo",
      "outputs": [
        {
          "internalType": "address",
          "name": "p1",
          "type": "address"
        },
        {
          "internalType": "address",
          "name": "p2",
          "type": "address"
        },
        {
          "internalType": "uint256",
          "name": "wager",
          "type": "uint256"
        },
        {
          "internalType": "bool",
          "name": "active",
          "type": "bool"
        },
        {
          "internalType": "address",
          "name": "winnerAddress",
          "type": "address"
        }
      ],
      "stateMutability": "view",
      "type": "function"
    },
    {
      "inputs": [
        {
          "internalType": "uint256",
          "name": "_gameId",
          "type": "uint256"
        }
      ],
      "name": "joinGame",
      "outputs": [],
      "stateMutability": "payable",
      "type": "function"
    },
    {
      "inputs": [
        {
          "internalType": "uint256",
          "name": "_gameId",
          "type": "uint256"
        },
        {
          "internalType": "string",
          "name": "_moveSan",
          "type": "string"
        }
      ],
      "name": "makeMove",
      "outputs": [],
      "stateMutability": "nonpayable",
      "type": "function"
    },
    {
      "inputs": [
        {
          "internalType": "uint256",
          "name": "_gameId",
          "type": "uint256"
        },
        {
          "internalType": "bytes",
          "name": "_signature",
          "type": "bytes"
        }
      ],
      "name": "reportWin",
      "outputs": [],
      "stateMutability": "nonpayable",
      "type": "function"
    }
  ],
  "bytecode": "0x6080604052348015600f57600080fd5b506001600081905550612500806100276000396000f3fe6080604052600436106100865760003560e01c80637255d729116100595780637255d729146101645780637d20e9271461018257806386e773f1146101ab578063c7551246146101d4578063efaa55a0146101fd57610086565b8063099420b61461008b578063117a5b90146100b65780631bb412d6146100f857806347e1d55014610123575b600080fd5b34801561009757600080fd5b506100a0610219565b6040516100ad9190611624565b60405180910390f35b3480156100c257600080fd5b506100dd60048036038101906100d89190611675565b610220565b6040516100ef96959493929190611769565b60405180910390f35b34801561010457600080fd5b5061010d6102f5565b60405161011a9190611624565b60405180910390f35b34801561012f57600080fd5b5061014a60048036038101906101459190611675565b6102fb565b60405161015b9594939291906117ca565b60405180910390f35b61016c6104ec565b6040516101799190611624565b60405180910390f35b34801561018e57600080fd5b506101a960048036038101906101a49190611882565b6107b1565b005b3480156101b757600080fd5b506101d260048036038101906101cd9190611675565b610947565b005b3480156101e057600080fd5b506101fb60048036038101906101f69190611938565b610dd6565b005b61021760048036038101906102129190611675565b611250565b005b6201518081565b60016020528060005260406000206000915090508060000160009054906101000a900473ffffffffffffffffffffffffffffffffffffffff16908060010160009054906101000a900473ffffffffffffffffffffffffffffffffffffffff16908060010160149054906101000a900467ffffffffffffffff16908060020160009054906101000a90046bffffffffffffffffffffffff169080600201600c9054906101000a900460ff16908060030160009054906101000a900473ffffffffffffffffffffffffffffffffffffffff16905086565b60025481565b600080600080600080600160008881526020019081526020016000206040518060c00160405290816000820160009054906101000a900473ffffffffffffffffffffffffffffffffffffffff1673ffffffffffffffffffffffffffffffffffffffff1673ffffffffffffffffffffffffffffffffffffffff1681526020016001820160009054906101000a900473ffffffffffffffffffffffffffffffffffffffff1673ffffffffffffffffffffffffffffffffffffffff1673ffffffffffffffffffffffffffffffffffffffff1681526020016001820160149054906101000a900467ffffffffffffffff1667ffffffffffffffff1667ffffffffffffffff1681526020016002820160009054906101000a90046bffffffffffffffffffffffff166bffffffffffffffffffffffff166bffffffffffffffffffffffff16815260200160028201600c9054906101000a900460ff161515151581526020016003820160009054906101000a900473ffffffffffffffffffffffffffffffffffffffff1673ffffffffffffffffffffffffffffffffffffffff1673ffffffffffffffffffffffffffffffffffffffff168152505090508060000151816020015182606001516bffffffffffffffffffffffff1683608001518460a00151955095509550955095505091939590929450565b60006104f66114e4565b60003411610539576040517f08c379a0000000000000000000000000000000000000000000000000000000008152600401610530906119f5565b60405180910390fd5b6002600081548092919061054c90611a44565b91905055506040518060c001604052803373ffffffffffffffffffffffffffffffffffffffff168152602001600073ffffffffffffffffffffffffffffffffffffffff1681526020014267ffffffffffffffff168152602001346bffffffffffffffffffffffff168152602001600115158152602001600073ffffffffffffffffffffffffffffffffffffffff1681525060016000600254815260200190815260200160002060008201518160000160006101000a81548173ffffffffffffffffffffffffffffffffffffffff021916908373ffffffffffffffffffffffffffffffffffffffff16021790555060208201518160010160006101000a81548173ffffffffffffffffffffffffffffffffffffffff021916908373ffffffffffffffffffffffffffffffffffffffff16021790555060408201518160010160146101000a81548167ffffffffffffffff021916908367ffffffffffffffff16021790555060608201518160020160006101000a8154816bffffffffffffffffffffffff02191690836bffffffffffffffffffffffff160217905550608082015181600201600c6101000a81548160ff02191690831515021790555060a08201518160030160006101000a81548173ffffffffffffffffffffffffffffffffffffffff021916908373ffffffffffffffffffffffffffffffffffffffff1602179055509050503373ffffffffffffffffffffffffffffffffffffffff166002547f7dfb67e9ff596fca4da65c7eedb128cd1aac553af54b3c0cb733625a2480d8bd346040516107999190611624565b60405180910390a360025490506107ae61152a565b90565b600060016000858152602001908152602001600020905080600201600c9054906101000a900460ff16610819576040517f08c379a000000000000000000000000000000000000000000000000000000000815260040161081090611ad8565b60405180910390fd5b8060000160009054906101000a900473ffffffffffffffffffffffffffffffffffffffff1673ffffffffffffffffffffffffffffffffffffffff163373ffffffffffffffffffffffffffffffffffffffff1614806108c657508060010160009054906101000a900473ffffffffffffffffffffffffffffffffffffffff1673ffffffffffffffffffffffffffffffffffffffff163373ffffffffffffffffffffffffffffffffffffffff16145b610905576040517f08c379a00000000000000000000000000000000000000000000000000000000081526004016108fc90611b44565b60405180910390fd5b837f09e4ecbf5be56c714788f702bdb4e8b59df60ed6b1080faf97ce55eaae740dcb33858560405161093993929190611bb1565b60405180910390a250505050565b61094f6114e4565b600060016000838152602001908152602001600020905080600201600c9054906101000a900460ff166109b7576040517f08c379a00000000000000000000000000000000000000000000000000000000081526004016109ae90611c2f565b60405180910390fd5b620151808160010160149054906101000a900467ffffffffffffffff1667ffffffffffffffff166109e89190611c4f565b4211610a29576040517f08c379a0000000000000000000000000000000000000000000000000000000008152600401610a2090611ccf565b60405180910390fd5b600081600201600c6101000a81548160ff021916908315150217905550600073ffffffffffffffffffffffffffffffffffffffff168160010160009054906101000a900473ffffffffffffffffffffffffffffffffffffffff1673ffffffffffffffffffffffffffffffffffffffff1603610bd45760008160000160009054906101000a900473ffffffffffffffffffffffffffffffffffffffff1673ffffffffffffffffffffffffffffffffffffffff168260020160009054906101000a90046bffffffffffffffffffffffff166bffffffffffffffffffffffff16604051610b1290611d20565b60006040518083038185875af1925050503d8060008114610b4f576040519150601f19603f3d011682016040523d82523d6000602084013e610b54565b606091505b5050905080610b98576040517f08c379a0000000000000000000000000000000000000000000000000000000008152600401610b8f90611d81565b60405180910390fd5b827fd4dee1ad9aaf5e16668c28363994a5e60dba69b179e82bb7b9a8a4af8171b642604051610bc690611ded565b60405180910390a250610dca565b60008160000160009054906101000a900473ffffffffffffffffffffffffffffffffffffffff1673ffffffffffffffffffffffffffffffffffffffff168260020160009054906101000a90046bffffffffffffffffffffffff166bffffffffffffffffffffffff16604051610c4890611d20565b60006040518083038185875af1925050503d8060008114610c85576040519150601f19603f3d011682016040523d82523d6000602084013e610c8a565b606091505b5050905060008260010160009054906101000a900473ffffffffffffffffffffffffffffffffffffffff1673ffffffffffffffffffffffffffffffffffffffff168360020160009054906101000a90046bffffffffffffffffffffffff166bffffffffffffffffffffffff16604051610d0290611d20565b60006040518083038185875af1925050503d8060008114610d3f576040519150601f19603f3d011682016040523d82523d6000602084013e610d44565b606091505b50509050818015610d525750805b610d91576040517f08c379a0000000000000000000000000000000000000000000000000000000008152600401610d8890611d81565b60405180910390fd5b837fd4dee1ad9aaf5e16668c28363994a5e60dba69b179e82bb7b9a8a4af8171b642604051610dbf90611e59565b60405180910390a250505b50610dd361152a565b50565b610dde6114e4565b600060016000858152602001908152602001600020905080600201600c9054906101000a900460ff16610e46576040517f08c379a0000000000000000000000000000000000000000000000000000000008152600401610e3d90611ec5565b60405180910390fd5b600033905060008260000160009054906101000a900473ffffffffffffffffffffffffffffffffffffffff1673ffffffffffffffffffffffffffffffffffffffff168273ffffffffffffffffffffffffffffffffffffffff1603610ed0578260010160009054906101000a900473ffffffffffffffffffffffffffffffffffffffff169050610f8f565b8260010160009054906101000a900473ffffffffffffffffffffffffffffffffffffffff1673ffffffffffffffffffffffffffffffffffffffff168273ffffffffffffffffffffffffffffffffffffffff1603610f53578260000160009054906101000a900473ffffffffffffffffffffffffffffffffffffffff169050610f8e565b6040517f08c379a0000000000000000000000000000000000000000000000000000000008152600401610f8590611f57565b60405180910390fd5b5b600086604051602001610fa29190611fef565b604051602081830303815290604052805190602001209050600081604051602001610fcd919061208c565b60405160208183030381529060405280519060200120905060006110358289898080601f016020809104026020016040519081016040528093929190818152602001838380828437600081840152601f19601f82011690508083019250505050505050611534565b90508373ffffffffffffffffffffffffffffffffffffffff168173ffffffffffffffffffffffffffffffffffffffff16146110a5576040517f08c379a000000000000000000000000000000000000000000000000000000000815260040161109c90612124565b60405180910390fd5b600086600201600c6101000a81548160ff021916908315150217905550848660030160006101000a81548173ffffffffffffffffffffffffffffffffffffffff021916908373ffffffffffffffffffffffffffffffffffffffff160217905550600060028760020160009054906101000a90046bffffffffffffffffffffffff166bffffffffffffffffffffffff1661113e9190612144565b905060008673ffffffffffffffffffffffffffffffffffffffff168260405161116690611d20565b60006040518083038185875af1925050503d80600081146111a3576040519150601f19603f3d011682016040523d82523d6000602084013e6111a8565b606091505b50509050806111ec576040517f08c379a00000000000000000000000000000000000000000000000000000000081526004016111e3906121d2565b60405180910390fd5b8673ffffffffffffffffffffffffffffffffffffffff168b7ff1898de79c348962fab7695532341027e5bceb0ea2a8785790fa7d7efeeee129846040516112339190611624565b60405180910390a3505050505050505061124b61152a565b505050565b6112586114e4565b600060016000838152602001908152602001600020905080600201600c9054906101000a900460ff166112c0576040517f08c379a00000000000000000000000000000000000000000000000000000000081526004016112b79061223e565b60405180910390fd5b600073ffffffffffffffffffffffffffffffffffffffff168160010160009054906101000a900473ffffffffffffffffffffffffffffffffffffffff1673ffffffffffffffffffffffffffffffffffffffff1614611353576040517f08c379a000000000000000000000000000000000000000000000000000000000815260040161134a906122aa565b60405180910390fd5b8060000160009054906101000a900473ffffffffffffffffffffffffffffffffffffffff1673ffffffffffffffffffffffffffffffffffffffff163373ffffffffffffffffffffffffffffffffffffffff16036113e5576040517f08c379a00000000000000000000000000000000000000000000000000000000081526004016113dc9061233c565b60405180910390fd5b8060020160009054906101000a90046bffffffffffffffffffffffff166bffffffffffffffffffffffff163414611451576040517f08c379a0000000000000000000000000000000000000000000000000000000008152600401611448906123ce565b60405180910390fd5b338160010160006101000a81548173ffffffffffffffffffffffffffffffffffffffff021916908373ffffffffffffffffffffffffffffffffffffffff1602179055503373ffffffffffffffffffffffffffffffffffffffff16827f87969bc7faf902221a147b95ceba76e011c5efb0339a0a8ee7a2bb82d9cfbbd660405160405180910390a3506114e161152a565b50565b600260005403611520576040517f3ee5aeb500000000000000000000000000000000000000000000000000000000815260040160405180910390fd5b6002600081905550565b6001600081905550565b600080600080611543856115a3565b9250925092506001868285856040516000815260200160405260405161156c9493929190612419565b6020604051602081039080840390855afa15801561158e573d6000803e3d6000fd5b50505060206040510351935050505092915050565b600080600060418451146115ec576040517f08c379a00000000000000000000000000000000000000000000000000000000081526004016115e3906124aa565b60405180910390fd5b6020840151925060408401519150606084015160001a90509193909250565b6000819050919050565b61161e8161160b565b82525050565b60006020820190506116396000830184611615565b92915050565b600080fd5b600080fd5b6116528161160b565b811461165d57600080fd5b50565b60008135905061166f81611649565b92915050565b60006020828403121561168b5761168a61163f565b5b600061169984828501611660565b91505092915050565b600073ffffffffffffffffffffffffffffffffffffffff82169050919050565b60006116cd826116a2565b9050919050565b6116dd816116c2565b82525050565b600067ffffffffffffffff82169050919050565b611700816116e3565b82525050565b60006bffffffffffffffffffffffff82169050919050565b61172781611706565b82525050565b60008115159050919050565b6117428161172d565b82525050565b6000611753826116a2565b9050919050565b61176381611748565b82525050565b600060c08201905061177e60008301896116d4565b61178b60208301886116d4565b61179860408301876116f7565b6117a5606083018661171e565b6117b26080830185611739565b6117bf60a083018461175a565b979650505050505050565b600060a0820190506117df600083018861175a565b6117ec602083018761175a565b6117f96040830186611615565b6118066060830185611739565b611813608083018461175a565b9695505050505050565b600080fd5b600080fd5b600080fd5b60008083601f8401126118425761184161181d565b5b8235905067ffffffffffffffff81111561185f5761185e611822565b5b60208301915083600182028301111561187b5761187a611827565b5b9250929050565b60008060006040848603121561189b5761189a61163f565b5b60006118a986828701611660565b935050602084013567ffffffffffffffff8111156118ca576118c9611644565b5b6118d68682870161182c565b92509250509250925092565b60008083601f8401126118f8576118f761181d565b5b8235905067ffffffffffffffff81111561191557611914611822565b5b60208301915083600182028301111561193157611930611827565b5b9250929050565b6000806000604084860312156119515761195061163f565b5b600061195f86828701611660565b935050602084013567ffffffffffffffff8111156119805761197f611644565b5b61198c868287016118e2565b92509250509250925092565b600082825260208201905092915050565b7f5761676572206d7573742062652067726561746572207468616e203000000000600082015250565b60006119df601c83611998565b91506119ea826119a9565b602082019050919050565b60006020820190508181036000830152611a0e816119d2565b9050919050565b7f4e487b7100000000000000000000000000000000000000000000000000000000600052601160045260246000fd5b6000611a4f8261160b565b91507fffffffffffffffffffffffffffffffffffffffffffffffffffffffffffffffff8203611a8157611a80611a15565b5b600182019050919050565b7f47616d65206e6f74206163746976650000000000000000000000000000000000600082015250565b6000611ac2600f83611998565b9150611acd82611a8c565b602082019050919050565b60006020820190508181036000830152611af181611ab5565b9050919050565b7f556e617574686f72697a65643a204e6f74206120706c61796572000000000000600082015250565b6000611b2e601a83611998565b9150611b3982611af8565b602082019050919050565b60006020820190508181036000830152611b5d81611b21565b9050919050565b82818337600083830152505050565b6000601f19601f8301169050919050565b6000611b908385611998565b9350611b9d838584611b64565b611ba683611b73565b840190509392505050565b6000604082019050611bc6600083018661175a565b8181036020830152611bd9818486611b84565b9050949350505050565b7f47616d6520616374697665206f7220616c726561647920656e64656400000000600082015250565b6000611c19601c83611998565b9150611c2482611be3565b602082019050919050565b60006020820190508181036000830152611c4881611c0c565b9050919050565b6000611c5a8261160b565b9150611c658361160b565b9250828201905080821115611c7d57611c7c611a15565b5b92915050565b7f54696d656f7574206e6f74207965742072656163686564000000000000000000600082015250565b6000611cb9601783611998565b9150611cc482611c83565b602082019050919050565b60006020820190508181036000830152611ce881611cac565b9050919050565b600081905092915050565b50565b6000611d0a600083611cef565b9150611d1582611cfa565b600082019050919050565b6000611d2b82611cfd565b9150819050919050565b7f526566756e64206661696c656400000000000000000000000000000000000000600082015250565b6000611d6b600d83611998565b9150611d7682611d35565b602082019050919050565b60006020820190508181036000830152611d9a81611d5e565b9050919050565b7f4e6f206f70706f6e656e74206a6f696e65640000000000000000000000000000600082015250565b6000611dd7601283611998565b9150611de282611da1565b602082019050919050565b60006020820190508181036000830152611e0681611dca565b9050919050565b7f47616d65206162616e646f6e6564202d20526566756e64656400000000000000600082015250565b6000611e43601983611998565b9150611e4e82611e0d565b602082019050919050565b60006020820190508181036000830152611e7281611e36565b9050919050565b7f47616d65206973206e6f74206163746976650000000000000000000000000000600082015250565b6000611eaf601283611998565b9150611eba82611e79565b602082019050919050565b60006020820190508181036000830152611ede81611ea2565b9050919050565b7f556e617574686f72697a65643a20596f7520617265206e6f74206120706c617960008201527f657220696e20746869732067616d650000000000000000000000000000000000602082015250565b6000611f41602f83611998565b9150611f4c82611ee5565b604082019050919050565b60006020820190508181036000830152611f7081611f34565b9050919050565b6000819050919050565b611f92611f8d8261160b565b611f77565b82525050565b600081905092915050565b7f6c6f737300000000000000000000000000000000000000000000000000000000600082015250565b6000611fd9600483611f98565b9150611fe482611fa3565b600482019050919050565b6000611ffb8284611f81565b60208201915061200a82611fcc565b915081905092915050565b7f19457468657265756d205369676e6564204d6573736167653a0a333200000000600082015250565b600061204b601c83611f98565b915061205682612015565b601c82019050919050565b6000819050919050565b6000819050919050565b61208661208182612061565b61206b565b82525050565b60006120978261203e565b91506120a38284612075565b60208201915081905092915050565b7f496e76616c6964207369676e61747572653a204e6f74207369676e656420627960008201527f20746865206c6f73657200000000000000000000000000000000000000000000602082015250565b600061210e602a83611998565b9150612119826120b2565b604082019050919050565b6000602082019050818103600083015261213d81612101565b9050919050565b600061214f8261160b565b915061215a8361160b565b92508282026121688161160b565b9150828204841483151761217f5761217e611a15565b5b5092915050565b7f5472616e73666572206661696c65640000000000000000000000000000000000600082015250565b60006121bc600f83611998565b91506121c782612186565b602082019050919050565b600060208201905081810360008301526121eb816121af565b9050919050565b7f4572726f723a2047616d65206973206e6f742061637469766500000000000000600082015250565b6000612228601983611998565b9150612233826121f2565b602082019050919050565b600060208201905081810360008301526122578161221b565b9050919050565b7f4572726f723a2047616d6520697320616c72656164792066756c6c0000000000600082015250565b6000612294601b83611998565b915061229f8261225e565b602082019050919050565b600060208201905081810360008301526122c381612287565b9050919050565b7f4572726f723a2043616e6e6f7420706c617920616761696e737420796f75727360008201527f656c660000000000000000000000000000000000000000000000000000000000602082015250565b6000612326602383611998565b9150612331826122ca565b604082019050919050565b6000602082019050818103600083015261235581612319565b9050919050565b7f4572726f723a20496e636f727265637420776167657220616d6f756e7420736560008201527f6e74000000000000000000000000000000000000000000000000000000000000602082015250565b60006123b8602283611998565b91506123c38261235c565b604082019050919050565b600060208201905081810360008301526123e7816123ab565b9050919050565b6123f781612061565b82525050565b600060ff82169050919050565b612413816123fd565b82525050565b600060808201905061242e60008301876123ee565b61243b602083018661240a565b61244860408301856123ee565b61245560608301846123ee565b95945050505050565b7f496e76616c6964207369676e6174757265206c656e6774680000000000000000600082015250565b6000612494601883611998565b915061249f8261245e565b602082019050919050565b600060208201905081810360008301526124c381612487565b905091905056fea26469706673582212202b253f6fac85acc5d7e8aa7ed5eae84f93907ecc64b02d9f47d64766b9ece4a964736f6c634300081c0033",
  "linkReferences": {},
  "deployedLinkReferences": {}
}